:100000000C945B000C9478000C9478000C947800AD
:100010000C9478000C9478000C9478000C94780080
:100020000C9478000C9478000C9478000C94780070
:100030000C9478000C9478000C9478000C94780060
:100040000C9478000C9478000C9478000C94780050
:100050000C9478000C9478000C9478000C94780040
:100060000C9478000C9478009D00A400AC00B200C1
:100070008900890089008900890089008900BA0007
:10008000C100C800CF00D600DD00E400EB00F200A4
:10009000F900000107010E0115011C0123012A01CD
:1000A000310138013F01E902F202FC02050323039A
:1000B0000E031803210311241FBECFEFD8E0DEBFCB
:1000C000CDBF11E0A0E0B1E0E2EDF4E102C00590A7
:1000D0000D92AC33B107D9F721E0ACE3B1E001C038
:1000E0001D92AE3CB207E1F70E94EF090C94670A3B
:1000F0000C94000080E20E944F0390933D01809396
:100100003C010C94D203EF92FF921F93CF93DF93A5
:10011000EC011881112309F4ACC28FEF810F8F32EB
:1001200008F0B4C0812F90E0FC013197EF31F10568
:1001300080F7EC5CFF4F0C94250A80913C01909174
:100140003D010E94800306C080913C0190913D01D9
:100150000E9426042196DDCF80913C0190913D01C3
:100160000E940E0880913C0190913D010E94800305
:10017000EB01CFCF80913C0190913D010E94410461
:10018000E9CF80913C0190913D010E945804E2CF5B
:1001900080913C0190913D010E947D04DBCF8091D4
:1001A0003C0190913D010E94A204D4CF80913C017A
:1001B00090913D010E94C704CDCF80913C01909168
:1001C0003D010E94E104C6CF80913C0190913D0128
:1001D0000E94F704BFCF80913C0190913D010E94A5
:1001E0000D05B8CF80913C0190913D010E943205F0
:1001F000B1CF80913C0190913D010E945D05AACF55
:1002000080913C0190913D010E947F05A3CF809198
:100210003C0190913D010E94B0059CCF80913C0132
:1002200090913D010E94D60595CF80913C0190911F
:100230003D010E9400068ECF80913C0190913D01CE
:100240000E942A0687CF80913C0190913D010E9437
:100250005A0680CF80913C0190913D010E948A0610
:1002600079CF80913C0190913D010E94BA0672CFF6
:1002700080913C0190913D010E94EA066BCF8091F4
:100280003C0190913D010E941A0764CF80ED810FDF
:10029000803240F4803108F46FC160EC610F862F2A
:1002A000806F6AC160EB610F6032C0F4603110F49E
:1002B000162F04C060EA610F162F106F80913C0169
:1002C00090913D010E948003672B682B692B09F0F8
:1002D00011E0C10FD11D17FDDA951BCF60E9610F49
:1002E000603238F480913C0190913D010E944A07B0
:1002F00031CF80E7810F8830A8F4612F6770462FD7
:1003000050E0643020F0445051094C6F5F6F052E6F
:10031000000C660B770B80913C0190913D010E948F
:100320006F0318CF88E6810F883048F4612F67701B
:1003300080913C0190913D010E948F080BCF80E697
:10034000810F883048F4612F677080913C01909153
:100350003D010E94D708FECE88E5810F883048F421
:10036000612F677080913C0190913D010E941609B8
:10037000F1CE193D09F4A9C008F044C0143B09F4BA
:1003800082C0E0F4CE0102967C01113B09F463C007
:1003900020F4103B09F46FC058C1123B09F463C04C
:1003A000133B09F052C141E050E060E070E0809101
:1003B0003C0190913D010E946F035DC0153D09F421
:1003C0007CC0C8F4CE0102967C011F3B09F46CC0CE
:1003D000143D09F03AC18981C80FD11D87FDDA9516
:1003E000AE01DD0F660B770B80913C0190913D01D2
:1003F0000E946F0360C0173D09F46EC0183D09F4F8
:1004000082C023C11E3D09F48DC060F41B3D09F478
:1004100089C008F46CC01C3D09F45EC01D3D09F4A0
:1004200072C013C1133E09F49AC070F4103E09F46F
:10043000A0C0113E09F009C189819A8198278927B6
:100440009827C80FD91F65CE173E09F49AC01F3FE1
:1004500009F4ACC0FAC0698180913C0190913D01E2
:100460000E94D70828C0698180913C0190913D018C
:100470000E94160920C0698180913C0190913D0144
:100480000E948F0818C04FEF5FEFBA0180913C01C6
:1004900090913D010E946F03698180913C01909190
:1004A0003D010E948F08CFC0698180913C019091ED
:1004B0003D010E94BB07E7012CCE49815A81542798
:1004C000452754274C0F5D1F19C04981042E000C8D
:1004D000550B660B770B04C0498150E060E070E07B
:1004E00080913C0190913D010E946F03ACC01A3D88
:1004F00051F449815A81542745275427052E000C71
:10050000660B770B07C049815A815427452754272A
:1005100060E070E080913C0190913D010E946F038A
:100520002396F7CD49815A8154274527542760E007
:1005300070E0BA01552744278B819C819827892731
:100540009827A0E0B0E0482B592B6A2B7B2B809199
:100550003C0190913D010E946F032596DACD809178
:100560003C0190913D010E948003672B682B692B11
:1005700011F4898101C082E0C80FD11D87FDDA9591
:10058000C8CDE980FA80FE24EF24FE24AE014D5F41
:100590005F4F052E000C660B770B80913C0190910C
:1005A0003D010E946F03CE0DDF1DB3CD898190E820
:1005B000980F983008F047C0E82FEF708E2F90E02A
:1005C0008830910508F03FC0FC01ED5AFF4F0C94B4
:1005D000250A80913C0190913D010E9480030E9478
:1005E000B70931C080913C0190913D010E94800388
:1005F000862F0E94BF0927C080913C0190913D0148
:100600000E9480030E94C7091EC080913C01909106
:100610003D010E9480030E94CF0915C080913C01DA
:1006200090913D010E948003CB010E94D7090BC02D
:1006300080913C0190913D010E9480030E94DF095E
:1006400002C00E94E709229664CD80E091E00E94FA
:10065000D709612F70E080E090E00E94DF0989E017
:1006600091E00E94D7090E94E70980E090E00E9493
:10067000670ADF91CF911F91FF90EF900895242F8B
:1006800030E0260F311D2830310524F0440F4E5F35
:10069000481B02C0481B4E5F842F860F0895882395
:1006A00039F09FEF9093C2019093C1018093C301F1
:1006B00081E491E0089508958F579F4FFC01608178
:1006C000062E000C770B6F5F7F4F072E000C880BF8
:1006D000990B08958E579F4FFC0180810895FC016E
:1006E000EF57FF4F20812F5F2083FC0134E023026E
:1006F000E00DF11D112440835183628373830895BB
:10070000FC01EF57FF4F20813FEF320F3083FC0198
:1007100034E02302E00DF11D11246081718182819A
:1007200093810895FC01EF57FF4F61E070E080E096
:1007300090E020812F3F19F060E070E0CB01089538
:100740000895FC01628161506283862F660F990BC8
:10075000AA0BBB0B80959095A095B095BC01CD01DF
:10076000662797FD63957727882799270895DC01E9
:10077000ED91FC91119712968C91B4E08B02E00DF3
:10078000F11D112460817181828193810895DC01C2
:10079000ED91FC911197EF57FF4F90819F5F12965B
:1007A0009C93089590933F0180933E018EE391E0E6
:1007B0000E94C7038EE391E0089590933F018093D8
:1007C0003E018EE391E00E94C7038EE391E008951D
:1007D000CF92DF92EF92FF92CF93DF93EC010E94D2
:1007E000C7038BE50E94BF098A8181508A8387FDF8
:1007F00014C0E881F98194E08902E00DF11D112413
:10080000C080D180E280F38087E091E00E94D70928
:10081000C701B6010E94DF09E7CF87E291E0DF91CF
:10082000CF91FF90EF90DF90CF900C94D709FC010F
:10083000EF57FF4F2081FC0134E02302E00DF11D52
:10084000112460817181828193810895FC01EF57A9
:10085000FF4F2081DC0134E02302A00DB11D1124E3
:100860004D915D916D917C912F5F2083FC0134E06F
:100870002302E00DF11D11244083518362837383B1
:100880000895FC01EF57FF4F2081FC0134E0230263
:10089000E00DF11D112480819181A281B3818095A9
:1008A0009095A095B09580839183A283B38308959A
:1008B000FC01EF57FF4F20813FEF320F3083FC01E7
:1008C00044E03402E00DF11D1124DC0134E0230288
:1008D000A00DB11D112440815181628173818D91E0
:1008E0009D910D90BC91A02D84239523A623B72321
:1008F00080839183A283B3830895FC01EF57FF4F58
:1009000020813FEF320F3083FC0144E03402E00DE0
:10091000F11D1124DC0134E02302A00DB11D1124CE
:1009200040815181628173818D919D910D90BC9127
:10093000A02D842B952BA62BB72B80839183A2838C
:10094000B3830895FC01EF57FF4F20813FEF320F33
:100950003083FC0144E03402E00DF11D1124DC0180
:1009600034E02302A00DB11D112440815181628128
:1009700073818D919D910D90BC91A02D8427952719
:10098000A627B72780839183A283B3830895FC01B0
:10099000EF57FF4F2081FC0134E02302E00DF11DF1
:1009A000112480819181A281B381B095A095909509
:1009B00081959F4FAF4FBF4F80839183A283B383B5
:1009C0000895FC01EF57FF4F2081FC0134E0230222
:1009D000E00DF11D112480819181A281B3810196E6
:1009E000A11DB11D80839183A283B3830895FC016F
:1009F000EF57FF4F2081FC0134E02302E00DF11D91
:100A0000112480819181A281B3810197A109B1094B
:100A100080839183A283B3830895FC01EF57FF4F36
:100A200020813FEF320F3083FC0144E03402E00DBF
:100A3000F11D1124DC0134E02302A00DB11D1124AD
:100A400040815181628173818D919D910D90BC9106
:100A5000A02D840F951FA61FB71F80839183A283AB
:100A6000B38308950F931F93FC01EF57FF4F20812D
:100A70003FEF320F3083FC0104E03002E00DF11D46
:100A80001124DC0114E02102A00DB11D11244081CC
:100A90005181628173818D919D910D90BC91A02DAA
:100AA0008A019B01081B190B2A0B3B0B0083118346
:100AB000228333831F910F910895FC01EF57FF4F5D
:100AC00020813FEF320F3083FC0144E03402E00D1F
:100AD000F11D1124DC0134E02302A00DB11D11240D
:100AE00020813181428153816D917D918D919C91C5
:100AF0000E94F60960837183828393830895CF9364
:100B0000DF93FC01EF57FF4F20816FEF620F60838F
:100B1000FC0134E02302E00DF11D1124208131811C
:100B200042815381211531054105510531F48AE295
:100B300091E0DF91CF910C94D709EC0174E067024A
:100B4000C00DD11D1124688179818A819B810E9409
:100B5000060A288339834A835B83DF91CF91089506
:100B6000CF93DF93FC01EF57FF4F20813FEF320F10
:100B70003083EC0144E03402C00DD11D1124FC018E
:100B800034E02302E00DF11D1124688179818A810E
:100B90009B8120813181428153810E94060A6883B2
:100BA00079838A839B83DF91CF9108950F931F935D
:100BB000FC01EF57FF4F20813FEF320F3083FC01E4
:100BC00004E03002E00DF11D1124DC0114E02102EB
:100BD000A00DB11D112440815181628173818A0170
:100BE0009B010C9004C0000F111F221F331F0A9499
:100BF000D2F700831183228333831F910F910895CD
:100C00000F931F93FC01EF57FF4F20813FEF320FEF
:100C10003083FC0104E03002E00DF11D1124DC0101
:100C200014E02102A00DB11D112440815181628187
:100C300073818A019B010C9004C035952795179507
:100C400007950A94D2F700831183228333831F917F
:100C50000F9108950F931F93FC01EF57FF4F2081D1
:100C60003FEF320F3083FC0144E03402E00DF11D10
:100C70001124DC0134E02302A00DB11D112441E058
:100C800050E060E070E00D911D912D913C918081CC
:100C90009181A281B381081719072A073B0719F030
:100CA00040E050E0BA0140835183628373831F9117
:100CB0000F9108950F931F93FC01EF57FF4F208171
:100CC0003FEF320F3083FC0144E03402E00DF11DB0
:100CD0001124DC0134E02302A00DB11D112441E0F8
:100CE00050E060E070E00D911D912D913C9180816C
:100CF0009181A281B381081719072A073B0719F4CC
:100D000040E050E0BA0140835183628373831F91B6
:100D10000F9108950F931F93FC01EF57FF4F208110
:100D20003FEF320F3083FC0144E03402E00DF11D4F
:100D30001124DC0134E02302A00DB11D112441E097
:100D400050E060E070E00D911D912D913C9180810B
:100D50009181A281B38180179107A207B3071CF08C
:100D600040E050E0BA0140835183628373831F9156
:100D70000F9108950F931F93FC01EF57FF4F2081B0
:100D80003FEF320F3083FC0144E03402E00DF11DEF
:100D90001124DC0134E02302A00DB11D112441E037
:100DA00050E060E070E00D911D912D913C918081AB
:100DB0009181A281B381081719072A073B071CF00C
:100DC00040E050E0BA0140835183628373831F91F6
:100DD0000F9108950F931F93FC01EF57FF4F208150
:100DE0003FEF320F3083FC0144E03402E00DF11D8F
:100DF0001124DC0134E02302A00DB11D112441E0D7
:100E000050E060E070E00D911D912D913C9180814A
:100E10009181A281B381081719072A073B071CF4A7
:100E200040E050E0BA0140835183628373831F9195
:100E30000F9108950F931F93FC01EF57FF4F2081EF
:100E40003FEF320F3083FC0144E03402E00DF11D2E
:100E50001124DC0134E02302A00DB11D112441E076
:100E600050E060E070E00D911D912D913C918081EA
:100E70009181A281B38180179107A207B3071CF467
:100E800040E050E0BA0140835183628373831F9135
:100E90000F910895CF92DF92EF92FF920F931F93DD
:100EA000CF93DF93FC01862F83708F010F571F4F65
:100EB000D8019C919F01B4E09B02200D311D1124AB
:100EC000E901C880D980EA80FB809150292F280F42
:100ED00091E0920FAF01D4E09D02400D511D11240D
:100EE00064FBAA27A0F9B0E096E0AA0FBB1F9A9571
:100EF000E1F7962F96959695937038E0939FB00101
:100F000011246A2B862B082E000C990BAA0BBB0B05
:100F1000EA0188839983AA83BB8382E0820FDF0181
:100F2000D4E08D02A00DB11D1124CD92DD92ED9281
:100F3000FC92139793E0920FD8019C93DF01C4E0D9
:100F40009C02A00DB11D1124E058FF4F4081042EDA
:100F5000000C550B660B770B4D935D936D937C9353
:100F600013979083DF91CF911F910F91FF90EF9096
:100F7000DF90CF900895CF92DF92EF92FF929C0185
:100F8000862F8770F901EF57FF4F9081D90144E018
:100F90009402A00DB11D1124CD90DD90ED90FC9038
:100FA0009150980F41E0490FD90154E04502A00D3E
:100FB000B11D1124462F4877482B042E000C550BE9
:100FC000660B770B4D935D936D937C93139782E043
:100FD000890FD90144E08402A00DB11D1124CD92E6
:100FE000DD92ED92FC9213979D5F9083D90154E0BE
:100FF0009502A00DB11D112431974081042E000CE3
:10100000550B660B770B4D935D936D937C93139704
:101010009083FF90EF90DF90CF9008958F929F92F2
:10102000AF92BF92CF92DF92EF92FF92CF93DF9376
:101030009C01DC01A058BF4F8C91F90164E086024D
:10104000E00DF11D112438979081892F86958695A2
:1010500086958770492F4770F901EF57FF4F96FB30
:10106000552750F996FF0FC090816FEF690F60838D
:10107000E90174E09702C00DD11D11248880998088
:10108000AA80BB8003C0812C912C54019081E9017E
:1010900064E09602C00DD11D112468816C936FEF3E
:1010A000690FD90174E06702A00DB11D1124CD9024
:1010B000DD90ED90FC909350941B981B642F70E092
:1010C000680F711D683071050CF0941B90835523D7
:1010D00071F080818F5F8083D90194E08902A00D37
:1010E000B11D11248D929D92AD92BC921397808177
:1010F0008F5F8083F90164E08602E00DF11D112409
:10110000C082D182E282F382DF91CF91FF90EF9093
:10111000DF90CF90BF90AF909F908F9008950F93E6
:101120001F93CF93DF938C01862FF801E058FF4F78
:10113000C0810C2E000CDD0BFE013297EE0FFF1F5D
:10114000EE0FFF1FE00FF11F6081462F477066957D
:101150006695669567700E943F03F801EF57FF4F51
:1011600090812FEF290F2083C81BD109CC0FDD1FE1
:10117000CC0FDD1FC00FD11FF80184E09802E00DF5
:10118000F11D1124488159816A817B81808191817F
:10119000A281B381840F951FA61FB71F88839983EF
:1011A000AA83BB83DF91CF911F910F9108950F9375
:1011B0001F93CF93DF938C01862FF801E058FF4FE8
:1011C000C0810C2E000CDD0BFE013297EE0FFF1FCD
:1011D000EE0FFF1FE00FF11F6081462F47706695ED
:1011E0006695669567700E943F03C81BD109CC0FB6
:1011F000DD1FCC0FDD1FC00FD11F488159816A81CF
:101200007B81F801EF57FF4F80818F5F8083F8016A
:1012100094E08902E00DF11D112440835183628323
:101220007383DF91CF911F910F9108950F931F93B7
:10123000CF93DF938C01862FF801E058FF4FC081D8
:101240000C2E000CDD0BFE013297EE0FFF1FEE0F90
:10125000FF1FE00FF11F6081462F4770669566956E
:10126000669567700E943F03F801EF57FF4F90812A
:101270002FEF290F2083F80124E09202E00DF11DE9
:1012800011244081518162817381C81BD109CC0F27
:10129000DD1FCC0FDD1FC00FD11F488359836A8328
:1012A0007B83DF91CF911F910F9108951092C5001C
:1012B00087E68093C400E1ECF0E080818861808360
:1012C00008958091C00087FFFCCF8091C6000895EB
:1012D0009091C00095FFFCCF8093C6000895262F03
:1012E0008091C8019091C901A091CA01B091CB0130
:1012F0000196A11DB11D8093C8019093C901A093CF
:10130000CA01B093CB014091C4015091C5016091D5
:10131000C6017091C70134E0440F551F661F771F47
:101320003A95D1F7BA2FA92F982F8827842B952B80
:10133000A62BB72BBC01CD01622B08958091C4016F
:101340009091C501A091C601B091C7010196A11D60
:10135000B11D8093C4019093C501A093C601B093C1
:10136000C70108959093CD018093CC010895E09139
:10137000CC01F091CD010190F081E02D0994E09134
:10138000CC01F091CD010280F381E02D0994E09130
:10139000CC01F091CD010480F581E02D0994E0911C
:1013A000CC01F091CD010680F781E02D0994E09108
:1013B000CC01F091CD010084F185E02D0994E091FC
:1013C000CC01F091CD010284F385E02D0994E091E8
:1013D000CC01F091CD010484F585E02D09940E94A3
:1013E00056090E9461090E946809FBCFDB018F93B7
:1013F0009F930E942B0ABF91AF91A29F800D911DD8
:10140000A39F900DB29F900D11240895052E97FB78
:101410001EF400940E941D0A57FD07D00E94360A50
:1014200007FC03D04EF40C941D0A5095409530955E
:1014300021953F4F4F4F5F4F089590958095709540
:1014400061957F4F8F4F9F4F0895EE0FFF1F0590BF
:10145000F491E02D09940E94580AA59F900DB49F25
:10146000900DA49F800D911D11240895A1E21A2EC4
:10147000AA1BBB1BFD010DC0AA1FBB1FEE1FFF1F38
:10148000A217B307E407F50720F0A21BB30BE40B88
:10149000F50B661F771F881F991F1A9469F76095CF
:1014A0007095809590959B01AC01BD01CF01089589
:1014B000A29FB001B39FC001A39F700D811D112495
:1014C000911DB29F700D811D1124911D0895F894F6
:0214D000FFCF4C
:1014D2004F70636F64653A200020697320726573F0
:1014E200657276656420666F7220667574757265C2
:1014F20020757365642E00205D0044697669736906
:0C1502006F6E206279207A65726F0A001B
:00000001FF
