:100000000C9434000C9451000C9451000C94510049
:100010000C9451000C9451000C9451000C9451001C
:100020000C9451000C9451000C9451000C9451000C
:100030000C9451000C9451000C9451000C945100FC
:100040000C9451000C9451000C9451000C945100EC
:100050000C9451000C9451000C9451000C945100DC
:100060000C9451000C94510011241FBECFEFD8E026
:10007000DEBFCDBF11E0A0E0B1E0EEEEF4E002C0E3
:1000800005900D92A031B107D9F721E0A0E1B1E0D0
:1000900001C01D92AA32B207E1F70E94E7010C9459
:1000A00075020C9400000C945D000C9476008EE0B8
:1000B00091E00E940A010C948A000F931F93009113
:1000C00014011091150120911601309117010F5F55
:1000D0001F4F2F4F3F4F0093140110931501209392
:1000E0001601309317011F910F910895809110010F
:1000F00090911101A0911201B09113010196A11DDF
:10010000B11D8093100190931101A0931201B0933F
:100110001301089590931901809318010895E091B7
:100120001801F09119010190F081E02D0994E091FE
:100130001801F09119010280F381E02D0994E091FA
:100140001801F09119010480F581E02D0994E091E6
:100150001801F09119010680F781E02D0994E091D2
:100160001801F09119010084F185E02D0994E091C6
:100170001801F09119010284F385E02D0994E091B2
:100180001801F09119010484F585E02D09949091EE
:10019000C00095FFFCCF8093C6000895672B682BA5
:1001A000692B11F486E401C084E50C94C7000C941B
:1001B000C700CF93DF93EC018991882319F00E9447
:1001C000C700FACFDF91CF9108958AE00C94C70061
:1001D0000F9300E120E030E04EE151E00E942F015A
:1001E0008EE191E00F910C94D9000F930AE020E08A
:1001F00030E04EE151E00E942F018EE191E00F913D
:100200000C94D9004EE151E00E94D0018EE191E0C2
:100210000C94D90080911A0190911B01A0911C01AE
:10022000B0911D01892B8A2B8B2BB1F41092C50044
:1002300087E68093C4008091C10080648093C100F0
:1002400081E090E0A0E0B0E080931A0190931B0160
:10025000A0931C01B0931D0180E091E008952F92BE
:100260003F924F925F926F927F928F929F92AF9246
:10027000BF92CF92DF92EF92FF920F93CF93DF93D3
:1002800000D000D000D0CDB7DEB74B015C011A0121
:100290000A3039F0C12CD12CE12C40E1F42E00E1E0
:1002A00007C0C12C9AECD92E9AE9E92E9BE3F92ECE
:1002B00081149104A104B10451F4C90101969E83F3
:1002C0008D83F101E20FF31F80E380834CC0412C4A
:1002D000512C32013E832D83802F90E0A0E0B0E0CE
:1002E00089839A83AB83BC83C501B401A7019601BE
:1002F0000E943902411451046104710429F421154A
:10030000310541055105C9F08D819E810196ED8130
:10031000FE81E20DF31D0A3039F02A303105410526
:10032000510510F067E301C060E3620F60839E83B4
:100330008D83412C512C32014394C701B6010E9498
:100340002902861A970AA80AB90AC701B6012981A3
:100350003A814B815C810E94390269017A01232B29
:10036000242B252B09F6ED81FE81E20DF31D108271
:1003700026960FB6F894DEBF0FBECDBFDF91CF91AA
:100380000F91FF90EF90DF90CF90BF90AF909F9034
:100390008F907F906F905F904F903F902F90089537
:1003A0000F9397FF0DC02DE2FA0120839095809561
:1003B000709561957F4F8F4F9F4F21E030E002C0D5
:1003C00020E030E00AE00E942F010F9108950E9482
:1003D000570064E270E080E090E00E9453009B01CF
:1003E000AC01206264E270E080E090E00E94550081
:1003F00065E270E080E090E00E9453009B01AC0158
:10040000206265E270E080E090E00E9455002FEFEE
:1004100083ED90E3215080409040E1F700C0000060
:1004200065E270E080E090E00E9453009B01AC0127
:100430002F7D65E270E080E090E00E9455002FEF94
:1004400083ED90E3215080409040E1F700C0000030
:10045000CFCFDB018F939F930E945B02BF91AF913F
:10046000A29F800D911DA39F900DB29F900D11240E
:100470000895A1E21A2EAA1BBB1BFD010DC0AA1FE5
:10048000BB1FEE1FFF1FA217B307E407F50720F0FD
:10049000A21BB30BE40BF50B661F771F881F991F78
:1004A0001A9469F760957095809590959B01AC01C1
:1004B000BD01CF0108950E946602A59F900DB49FD3
:1004C000900DA49F800D911D11240895A29FB0014D
:1004D000B39FC001A39F700D811D1124911DB29F78
:0E04E000700D811D1124911D0895F894FFCF19
:1004EE00CE00D7000201F500D900E800E5000000BB
:00000001FF
