:100000000C945B000C9478000C9478000C947800AD
:100010000C9478000C9478000C9478000C94780080
:100020000C9478000C9478000C9478000C94780070
:100030000C9478000C9478000C9478000C94780060
:100040000C9478000C9478000C9478000C94780050
:100050000C9478000C9478000C9478000C94780040
:100060000C9478000C947800600267026F027502AD
:100070004C024C024C024C024C024C024C027D02DF
:1000800084028B0292029902A002A702AE02B5027C
:10009000BC02C302CA02D102D802DF02E602ED02AC
:1000A000F402FB020203AC04B504BF04C804E60476
:1000B000D104DB04E40411241FBECFEFD8E0DEBF7F
:1000C000CDBF11E0A0E0B1E0E0E1FDE102C00590AC
:1000D0000D92A235B107D9F722E0A2E5B1E001C047
:1000E0001D92A230B207E1F70E94190B0C94860E04
:1000F0000C9400008091C00087FD02C02D9AFACFB9
:1001000095B180E2892785B98091C60008959091C4
:10011000C00095FFFCCF8093C60008956091FE015A
:100120007091FF01082E000C990B0C94130E909106
:10013000C00095FFFCCF8093C6000895672B682B05
:10014000692B11F486E401C084E50C9497000C94AB
:100150009700CF93DF93EC018991882319F00E94D7
:100160009700FACFDF91CF9108958AE00C94970021
:100170000F9300E120E030E04AE551E00E94FF00EB
:100180008AE591E00F910C94A9000F930AE020E01A
:1001900030E04AE551E00E94FF008AE591E00F91CE
:1001A0000C94A9004AE551E00E94A0018AE591E083
:1001B0000C94A9008091560190915701A09158018B
:1001C000B0915901892B8A2B8B2BB1F41092C50069
:1001D00087E68093C4008091C10080648093C10051
:1001E00081E090E0A0E0B0E0809356019093570149
:1001F000A0935801B093590182E091E008952F92A5
:100200003F924F925F926F927F928F929F92AF92A6
:10021000BF92CF92DF92EF92FF920F93CF93DF9333
:1002200000D000D000D0CDB7DEB74B015C011A0181
:100230000A3039F0C12CD12CE12C40E1F42E00E140
:1002400007C0C12C9AECD92E9AE9E92E9BE3F92E2E
:1002500081149104A104B10451F4C90101969E8353
:100260008D83F101E20FF31F80E380834CC0412CAA
:10027000512C32013E832D83802F90E0A0E0B0E02E
:1002800089839A83AB83BC83C501B401A70196011E
:100290000E949F0B411451046104710429F421153B
:1002A000310541055105C9F08D819E810196ED8191
:1002B000FE81E20DF31D0A3039F02A303105410587
:1002C000510510F067E301C060E3620F60839E8315
:1002D0008D83412C512C32014394C701B6010E94F9
:1002E0008F0B861A970AA80AB90AC701B601298195
:1002F0003A814B815C810E949F0B69017A01232B1B
:10030000242B252B09F6ED81FE81E20DF31D1082D1
:1003100026960FB6F894DEBF0FBECDBFDF91CF910A
:100320000F91FF90EF90DF90CF90BF90AF909F9094
:100330008F907F906F905F904F903F902F90089597
:100340000F9397FF0DC02DE2FA01208390958095C1
:10035000709561957F4F8F4F9F4F21E030E002C035
:1003600020E030E00AE00E94FF000F91089581E54F
:1003700091E00E94DA000C940002262F80916A011D
:1003800090916B01A0916C01B0916D010196A11D3E
:10039000B11D80936A0190936B01A0936C01B0939F
:1003A0006D01409166015091670160916801709103
:1003B000690134E0440F551F661F771F3A95D1F746
:1003C000BA2FA92F982F8827842B952BA62BB72BD4
:1003D000BC01CD01622B0895809166019091670167
:1003E000A0916801B09169010196A11DB11D809392
:1003F000660190936701A0936801B0936901089525
:1004000090936F0180936E010895E0916E01F091D9
:100410006F010190F081E02D0994E0916E01F0915F
:100420006F010280F381E02D0994E0916E01F0915B
:100430006F010480F581E02D0994E0916E01F09147
:100440006F010680F781E02D0994E0916E01F09133
:100450006F010084F185E02D0994E0916E01F09127
:100460006F010284F385E02D0994E0916E01F09113
:100470006F010484F585E02D099480E20E94120545
:1004800090937101809370010C949505EF92FF9207
:100490001F93CF93DF93EC011881112309F4ACC2B1
:1004A0008FEF810F8F3208F0B4C0812F90E0FC01F4
:1004B0003197EF31F10580F7EC5CFF4F0C94E00BC6
:1004C00080917001909171010E94430506C0809156
:1004D0007001909171010E94E9052196DDCF809114
:1004E0007001909171010E94D109809170019091E9
:1004F00071010E944305EB01CFCF80917001909173
:1005000071010E940406E9CF809170019091710100
:100510000E941B06E2CF80917001909171010E94B0
:100520004006DBCF80917001909171010E946506B9
:10053000D4CF80917001909171010E948A06CDCF35
:1005400080917001909171010E94A406C6CF8091A4
:100550007001909171010E94BA06BFCF8091700125
:10056000909171010E94D006B8CF80917001909156
:1005700071010E94F506B1CF8091700190917101D7
:100580000E942007AACF80917001909171010E9472
:100590004207A3CF80917001909171010E9473076F
:1005A0009CCF80917001909171010E94990795CF25
:1005B00080917001909171010E94C3078ECF80914C
:1005C0007001909171010E94ED0787CF80917001B9
:1005D000909171010E941D0880CF809170019091CF
:1005E00071010E944D0879CF809170019091710145
:1005F0000E947D0872CF80917001909171010E94DC
:10060000AD086BCF80917001909171010E94DD085F
:1006100064CF80ED810F803240F4803108F46FC1E7
:1006200060EC610F862F806F6AC160EB610F6032F2
:10063000C0F4603110F4162F04C060EA610F162F69
:10064000106F80917001909171010E944305672B9A
:10065000682B692B09F011E0C10FD11D17FDDA9548
:100660001BCF60E9610F603238F480917001909186
:1006700071010E940D0931CF80E7810F8830A8F405
:10068000612F6770462F50E0643020F044505109CC
:100690004C6F5F6F052E000C660B770B809170011D
:1006A000909171010E94320518CF88E6810F883041
:1006B00048F4612F677080917001909171010E94E0
:1006C000520A0BCF80E6810F883048F4612F6770A3
:1006D00080917001909171010E949A0AFECE88E586
:1006E000810F883048F4612F67708091700190917C
:1006F00071010E94D90AF1CE193D09F4A9C008F090
:1007000044C0143B09F482C0E0F4CE0102967C019F
:10071000113B09F463C020F4103B09F46FC058C1C9
:10072000123B09F463C0133B09F052C141E050E0B1
:1007300060E070E080917001909171010E9432053B
:100740005DC0153D09F47CC0C8F4CE0102967C0161
:100750001F3B09F46CC0143D09F03AC18981C80FF0
:10076000D11D87FDDA95AE01DD0F660B770B809109
:100770007001909171010E94320560C0173D09F42B
:100780006EC0183D09F482C023C11E3D09F48DC01E
:1007900060F41B3D09F489C008F46CC01C3D09F4E9
:1007A0005EC01D3D09F472C013C1133E09F49AC026
:1007B00070F4103E09F4A0C0113E09F009C189810E
:1007C0009A81982789279827C80FD91F65CE173E89
:1007D00009F49AC01F3F09F4ACC0FAC06981809146
:1007E0007001909171010E949A0A28C069818091DC
:1007F0007001909171010E94D90A20C06981809195
:100800007001909171010E94520A18C04FEF5FEF82
:10081000BA0180917001909171010E943205698145
:1008200080917001909171010E94520ACFC069813C
:1008300080917001909171010E947E09E7012CCE98
:1008400049815A815427452754274C0F5D1F19C0F1
:100850004981042E000C550B660B770B04C04981AF
:1008600050E060E070E080917001909171010E9411
:100870003205ACC01A3D51F449815A8154274527AD
:100880005427052E000C660B770B07C049815A814F
:1008900054274527542760E070E0809170019091C3
:1008A00071010E9432052396F7CD49815A81542760
:1008B0004527542760E070E0BA01552744278B8113
:1008C0009C81982789279827A0E0B0E0482B592BD6
:1008D0006A2B7B2B80917001909171010E943205EF
:1008E0002596DACD80917001909171010E944305A7
:1008F000672B682B692B11F4898101C082E0C80F36
:10090000D11D87FDDA95C8CDE980FA80FE24EF2459
:10091000FE24AE014D5F5F4F052E000C660B770B7A
:1009200080917001909171010E943205CE0DDF1D02
:10093000B3CD898190E8980F983008F047C0E82F30
:10094000EF708E2F90E08830910508F03FC0FC01D9
:10095000ED5AFF4F0C94E00B809170019091710162
:100960000E9443050E94050231C080917001909160
:1009700071010E944305862F0E940D0227C08091BD
:100980007001909171010E9443050E9415021EC0E2
:1009900080917001909171010E9443050E941D0297
:1009A00015C080917001909171010E944305CB01A7
:1009B0000E9425020BC080917001909171010E94EC
:1009C00043050E942D0202C00E943502229664CD8A
:1009D00086E191E00E942502612F70E080E090E0C6
:1009E0000E942D028FE191E00E9425020E943502B3
:1009F00080E090E00E94860EDF91CF911F91FF90E2
:100A0000EF900895242F30E0260F311D2830310556
:100A100024F0440F4E5F481B02C0481B4E5F842FDA
:100A2000860F0895882339F09FEF9093F6019093F5
:100A3000F5018093F70185E791E0089508958F57B8
:100A40009F4FFC016081062E000C770B6F5F7F4F7C
:100A5000072E000C880B990B08958E579F4FFC01B1
:100A600080810895FC01EF57FF4F20812F5F208385
:100A7000FC0134E02302E00DF11D11244083518379
:100A8000628373830895FC01EF57FF4F20813FEF8E
:100A9000320F3083FC0134E02302E00DF11D1124FC
:100AA00060817181828193810895FC01EF57FF4F2E
:100AB00061E070E080E090E020812F3F19F060E07D
:100AC00070E0CB0108950895FC016281615062835A
:100AD000862F660F990BAA0BBB0B80959095A0955E
:100AE000B095BC01CD01662797FD639577278827D0
:100AF00099270895DC01ED91FC91119712968C9144
:100B0000B4E08B02E00DF11D1124608171818281BE
:100B100093810895DC01ED91FC911197EF57FF4F00
:100B200090819F5F12969C93089590937301809398
:100B3000720182E791E00E948A0582E791E00895C0
:100B4000909373018093720182E791E00E948A057D
:100B500082E791E00895CF92DF92EF92FF92CF93D8
:100B6000DF93EC010E948A058BE50E940D028A81C9
:100B700081508A8387FD14C0E881F98194E089025D
:100B8000E00DF11D1124C080D180E280F3808DE161
:100B900091E00E942502C701B6010E942D02E7CF15
:100BA0008DE391E0DF91CF91FF90EF90DF90CF90B8
:100BB0000C942502FC01EF57FF4F2081FC0134E02B
:100BC0002302E00DF11D11246081718182819381E6
:100BD0000895FC01EF57FF4F2081DC0134E0230230
:100BE000A00DB11D11244D915D916D917C912F5FF0
:100BF0002083FC0134E02302E00DF11D1124408329
:100C00005183628373830895FC01EF57FF4F208166
:100C1000FC0134E02302E00DF11D1124808191815B
:100C2000A281B38180959095A095B09580839183A2
:100C3000A283B3830895FC01EF57FF4F20813FEF5C
:100C4000320F3083FC0144E03402E00DF11D112429
:100C5000DC0134E02302A00DB11D1124408151813B
:100C6000628173818D919D910D90BC91A02D842303
:100C70009523A623B72380839183A283B38308950A
:100C8000FC01EF57FF4F20813FEF320F3083FC0113
:100C900044E03402E00DF11D1124DC0134E02302B4
:100CA000A00DB11D112440815181628173818D910C
:100CB0009D910D90BC91A02D842B952BA62BB72B2D
:100CC00080839183A283B3830895FC01EF57FF4F84
:100CD00020813FEF320F3083FC0144E03402E00D0D
:100CE000F11D1124DC0134E02302A00DB11D1124FB
:100CF00040815181628173818D919D910D90BC9154
:100D0000A02D84279527A627B72780839183A283C8
:100D1000B3830895FC01EF57FF4F2081FC0134E0BD
:100D20002302E00DF11D112480819181A281B38104
:100D3000B095A095909581959F4FAF4FBF4F808301
:100D40009183A283B3830895FC01EF57FF4F208165
:100D5000FC0134E02302E00DF11D1124808191811A
:100D6000A281B3810196A11DB11D80839183A283CD
:100D7000B3830895FC01EF57FF4F2081FC0134E05D
:100D80002302E00DF11D112480819181A281B381A4
:100D90000197A109B10980839183A283B383089548
:100DA000FC01EF57FF4F20813FEF320F3083FC01F2
:100DB00044E03402E00DF11D1124DC0134E0230293
:100DC000A00DB11D112440815181628173818D91EB
:100DD0009D910D90BC91A02D840F951FA61FB71F4C
:100DE00080839183A283B38308950F931F93FC01A3
:100DF000EF57FF4F20813FEF320F3083FC0104E0BB
:100E00003002E00DF11D1124DC0114E02102A00DDF
:100E1000B11D112440815181628173818D919D9119
:100E20000D90BC91A02D8A019B01081B190B2A0B68
:100E30003B0B00831183228333831F910F9108950D
:100E4000FC01EF57FF4F20813FEF320F3083FC0151
:100E500044E03402E00DF11D1124DC0134E02302F2
:100E6000A00DB11D112420813181428153816D91EA
:100E70007D918D919C910E948F0B60837183828301
:100E800093830895CF93DF93FC01EF57FF4F2081A9
:100E90006FEF620F6083FC0134E02302E00DF11D6F
:100EA0001124208131814281538121153105410571
:100EB000510531F480E491E0DF91CF910C9425024B
:100EC000EC0174E06702C00DD11D112468817981A5
:100ED0008A819B810E94C10B288339834A835B836B
:100EE000DF91CF910895CF93DF93FC01EF57FF4F30
:100EF00020813FEF320F3083EC0144E03402C00D1B
:100F0000D11D1124FC0134E02302E00DF11D112458
:100F1000688179818A819B812081318142815381DD
:100F20000E94C10B688379838A839B83DF91CF9171
:100F300008950F931F93FC01EF57FF4F20813FEF60
:100F4000320F3083FC0104E03002E00DF11D11246A
:100F5000DC0114E02102A00DB11D1124408151815A
:100F6000628173818A019B010C9004C0000F111FE4
:100F7000221F331F0A94D2F7008311832283338305
:100F80001F910F9108950F931F93FC01EF57FF4F8F
:100F900020813FEF320F3083FC0104E03002E00D8E
:100FA000F11D1124DC0114E02102A00DB11D11245A
:100FB00040815181628173818A019B010C9004C040
:100FC00035952795179507950A94D2F700831183D5
:100FD000228333831F910F9108950F931F93FC0178
:100FE000EF57FF4F20813FEF320F3083FC0144E089
:100FF0003402E00DF11D1124DC0134E02302A00DC8
:10100000B11D112441E050E060E070E00D911D91B0
:101010002D913C9180819181A281B381081719079C
:101020002A073B0719F040E050E0BA0140835183A2
:10103000628373831F910F9108950F931F93FC0197
:10104000EF57FF4F20813FEF320F3083FC0144E028
:101050003402E00DF11D1124DC0134E02302A00D67
:10106000B11D112441E050E060E070E00D911D9150
:101070002D913C9180819181A281B381081719073C
:101080002A073B0719F440E050E0BA01408351833E
:10109000628373831F910F9108950F931F93FC0137
:1010A000EF57FF4F20813FEF320F3083FC0144E0C8
:1010B0003402E00DF11D1124DC0134E02302A00D07
:1010C000B11D112441E050E060E070E00D911D91F0
:1010D0002D913C9180819181A281B38180179107EC
:1010E000A207B3071CF040E050E0BA0140835183EF
:1010F000628373831F910F9108950F931F93FC01D7
:10110000EF57FF4F20813FEF320F3083FC0144E067
:101110003402E00DF11D1124DC0134E02302A00DA6
:10112000B11D112441E050E060E070E00D911D918F
:101130002D913C9180819181A281B381081719077B
:101140002A073B071CF040E050E0BA01408351837E
:10115000628373831F910F9108950F931F93FC0176
:10116000EF57FF4F20813FEF320F3083FC0144E007
:101170003402E00DF11D1124DC0134E02302A00D46
:10118000B11D112441E050E060E070E00D911D912F
:101190002D913C9180819181A281B381081719071B
:1011A0002A073B071CF440E050E0BA01408351831A
:1011B000628373831F910F9108950F931F93FC0116
:1011C000EF57FF4F20813FEF320F3083FC0144E0A7
:1011D0003402E00DF11D1124DC0134E02302A00DE6
:1011E000B11D112441E050E060E070E00D911D91CF
:1011F0002D913C9180819181A281B38180179107CB
:10120000A207B3071CF440E050E0BA0140835183C9
:10121000628373831F910F910895CF92DF92EF92B3
:10122000FF920F931F93CF93DF93FC01862F837060
:101230008F010F571F4FD8019C919F01B4E09B0273
:10124000200D311D1124E901C880D980EA80FB807E
:101250009150292F280F91E0920FAF01D4E09D0209
:10126000400D511D112464FBAA27A0F9B0E096E0BF
:10127000AA0FBB1F9A95E1F7962F969596959370B6
:1012800038E0939FB00111246A2B862B082E000CA6
:10129000990BAA0BBB0BEA0188839983AA83BB83B2
:1012A00082E0820FDF01D4E08D02A00DB11D112478
:1012B000CD92DD92ED92FC92139793E0920FD801BC
:1012C0009C93DF01C4E09C02A00DB11D1124E058E5
:1012D000FF4F4081042E000C550B660B770B4D938E
:1012E0005D936D937C9313979083DF91CF911F91C2
:1012F0000F91FF90EF90DF90CF900895CF92DF9203
:10130000EF92FF929C01862F8770F901EF57FF4FF4
:101310009081D90144E09402A00DB11D1124CD901B
:10132000DD90ED90FC909150980F41E0490FD9016C
:1013300054E04502A00DB11D1124462F4877482BDB
:10134000042E000C550B660B770B4D935D936D933C
:101350007C93139782E0890FD90144E08402A00DA9
:10136000B11D1124CD92DD92ED92FC9213979D5FF9
:101370009083D90154E09502A00DB11D112431973D
:101380004081042E000C550B660B770B4D935D933B
:101390006D937C9313979083FF90EF90DF90CF90A5
:1013A00008958F929F92AF92BF92CF92DF92EF9269
:1013B000FF92CF93DF939C01DC01A058BF4F8C912B
:1013C000F90164E08602E00DF11D11243897908147
:1013D000892F8695869586958770492F4770F901E4
:1013E000EF57FF4F96FB552750F996FF0FC090819E
:1013F0006FEF690F6083E90174E09702C00DD11DA2
:10140000112488809980AA80BB8003C0812C912CF4
:1014100054019081E90164E09602C00DD11D1124B0
:1014200068816C936FEF690FD90174E06702A00DBA
:10143000B11D1124CD90DD90ED90FC909350941B44
:10144000981B642F70E0680F711D683071050CF0F7
:10145000941B9083552371F080818F5F8083D90125
:1014600094E08902A00DB11D11248D929D92AD9240
:10147000BC92139780818F5F8083F90164E08602BC
:10148000E00DF11D1124C082D182E282F382DF914E
:10149000CF91FF90EF90DF90CF90BF90AF909F9053
:1014A0008F9008950F931F93CF93DF938C01862F16
:1014B000F801E058FF4FC0810C2E000CDD0BFE013F
:1014C0003297EE0FFF1FEE0FFF1FE00FF11F60813D
:1014D000462F477066956695669567700E9402056F
:1014E000F801EF57FF4F90812FEF290F2083C81B82
:1014F000D109CC0FDD1FCC0FDD1FC00FD11FF801AC
:1015000084E09802E00DF11D1124488159816A811F
:101510007B8180819181A281B381840F951FA61F59
:10152000B71F88839983AA83BB83DF91CF911F91D3
:101530000F9108950F931F93CF93DF938C01862F04
:10154000F801E058FF4FC0810C2E000CDD0BFE01AE
:101550003297EE0FFF1FEE0FFF1FE00FF11F6081AC
:10156000462F477066956695669567700E940205DE
:10157000C81BD109CC0FDD1FCC0FDD1FC00FD11F41
:10158000488159816A817B81F801EF57FF4F808143
:101590008F5F8083F80194E08902E00DF11D112432
:1015A0004083518362837383DF91CF911F910F91A9
:1015B00008950F931F93CF93DF938C01862FF8012B
:1015C000E058FF4FC0810C2E000CDD0BFE0132975E
:1015D000EE0FFF1FEE0FFF1FE00FF11F6081462F80
:1015E000477066956695669567700E940205F801DA
:1015F000EF57FF4F90812FEF290F2083F80124E050
:101600009202E00DF11D11244081518162817381AC
:10161000C81BD109CC0FDD1FCC0FDD1FC00FD11FA0
:10162000488359836A837B83DF91CF911F910F9108
:1016300008957F928F929F92AF92BF92CF92DF9246
:10164000EF92FF920F931F93CF93DF9300D0CDB70C
:10165000DEB780E284B9809101018093C50080915A
:1016600000018093C4008091C10080658093C10017
:1016700061E070E080E090E00E94000C6C011A8252
:1016800019820E94B701E12CF12CA12CB12C00E0B1
:1016900010E00E947A00782E82E0A816B104BCF413
:1016A000E1E0F0E0EC0FFD1FEA0DFB1D7082E98028
:1016B0000E2C000CFF089E2D8827EA800E2C000CB3
:1016C000FF08E82AF92AC50101965C01E2CF48012A
:1016D0009FEF891A990AB401C6010E943D0D6C0161
:1016E000FC01E00FF11F70828401E814F90489F60F
:1016F0000E943D02C6010E94460280E090E00F90E9
:101700000F90DF91CF911F910F91FF90EF90DF909D
:10171000CF90BF90AF909F908F907F900895DB0106
:101720008F939F930E94E60BBF91AF91A29F800D74
:10173000911DA39F900DB29F900D11240895A1E2D9
:101740001A2EAA1BBB1BFD010DC0AA1FBB1FEE1F3B
:10175000FF1FA217B307E407F50720F0A21BB30B86
:10176000E40BF50B661F771F881F991F1A9469F702
:1017700060957095809590959B01AC01BD01CF015E
:101780000895052E97FB1EF400940E94D80B57FD78
:1017900007D00E949F0B07FC03D04EF40C94D80B8B
:1017A00050954095309521953F4F4F4F5F4F08958D
:1017B00090958095709561957F4F8F4F9F4F0895BD
:1017C000EE0FFF1F0590F491E02D09940E94F10B9C
:1017D000A59F900DB49F900DA49F800D911D112485
:1017E0000895A29FB001B39FC001A39F700D811DFA
:1017F0001124911DB29F700D811D1124911D08951A
:101800000F931F93CF93DF93869F8001879F100DC7
:10181000969F100D1124C8010E941C0CEC0100972A
:1018200029F0A80160E070E00E940C0ECE01DF916B
:10183000CF911F910F9108950F931F93CF93DF9333
:101840008230910510F482E090E0E091FA01F0918D
:10185000FB0120E030E0A0E0B0E0309719F14081DA
:1018600051810281138148175907C8F084179507E1
:1018700069F4109731F012960C93129713961C93FB
:1018800027C00093FA011093FB0122C021153105F6
:1018900019F04217530718F49A01BD01EF01DF0157
:1018A000F801DBCF21153105F9F0281B390B243065
:1018B000310580F48A819B816115710521F0FB015E
:1018C0009383828304C09093FB018093FA01FE010D
:1018D000329644C0FE01E20FF31F81939193225090
:1018E0003109398328833AC02091F8013091F901F8
:1018F000232B41F420911201309113013093F9010F
:101900002093F8012091100130911101211531052A
:1019100041F42DB73EB74091140150911501241B9D
:10192000350BE091F801F091F901E217F307A0F40B
:101930002E1B3F0B2817390778F0AC014E5F5F4F25
:101940002417350748F04E0F5F1F5093F90140935D
:10195000F8018193919302C0E0E0F0E0CF01DF91C4
:10196000CF911F910F910895CF93DF93009709F4C2
:1019700081C0FC01329713821282A091FA01B091CA
:10198000FB01109781F420813181820F931F2091F8
:10199000F8013091F9012817390751F5F093F90151
:1019A000E093F80167C0ED0120E030E0CE17DF07DB
:1019B00040F44A815B819E0141155105F1F0EA0135
:1019C000F5CFD383C28340815181840F951FC817FF
:1019D000D90759F488819981840F951F02969183C4
:1019E00080838A819B81938382832115310529F429
:1019F000F093FB01E093FA013DC0E901FB83EA8328
:101A000049915991C40FD51FEC17FD0761F48081EE
:101A10009181840F951F0296E901998388838281C1
:101A200093819B838A83E0E0F0E012968D919C91F4
:101A30001397009719F0FD01DC01F7CF8D919C9170
:101A400011979D012E5F3F4F820F931F2091F80148
:101A50003091F9012817390769F4309729F4109269
:101A6000FB011092FA0102C013821282B093F901B5
:101A7000A093F801DF91CF910895A0E0B0E0E3E4F6
:101A8000FDE00C94530EEC01009721F4CB010E9471
:101A90001C0CB4C0FC01E60FF71F9C012250310959
:101AA000E217F30708F4A8C0D9010D911C91119712
:101AB00006171707B0F00530110508F49BC0C801E0
:101AC00004978617970708F495C002501109061B62
:101AD000170B019311936D937C93CF010E94B40C6B
:101AE00089C05B01A01AB10A4C01800E911EA09121
:101AF000FA01B091FB01612C712CE12CF12C1097B3
:101B000009F446C08D919C911197A815B905B1F5BE
:101B10006C0142E0C40ED11CCA14DB0478F14C0104
:101B20008A189B08640142E0C40ED11C1296BC9036
:101B300012971396AC91B5E0CB16D10440F0B28267
:101B4000A38391828082D9016D937C9309C00E5F3B
:101B50001F4F800F911FF90191838083EB2DFA2F86
:101B6000E114F10431F0D7011396FC93EE93129730
:101B700041C0F093FB01E093FA013CC0681679067E
:101B800008F43C017D0112960D90BC91A02DB7CFB9
:101B90008091F8019091F90188169906E1F4661692
:101BA0007706C8F48091100190911101009741F4DB
:101BB0008DB79EB74091140150911501841B950B70
:101BC000E817F907C8F4F093F901E093F801F90177
:101BD000718360830FC0CB010E941C0C7C010097B5
:101BE00059F0A801BE010E94030ECE010E94B40C60
:101BF000C70104C0CE0102C080E090E0CDB7DEB7DF
:101C0000EEE00C946F0EFB01DC0102C001900D921E
:101C100041505040D8F70895DC0101C06D93415008
:101C20005040E0F708950F931F93CF93DF93FB018C
:101C3000238121FD03C08FEF9FEF2CC022FF16C030
:101C400046815781248135814217530744F4A0818E
:101C5000B1819D012F5F3F4F318320838C9326817B
:101C600037812F5F3F4F3783268314C08B01EC01F0
:101C7000FB010084F185E02D0995892BE1F6D8015F
:101C800016968D919C911797019617969C938E931B
:101C90001697CE01DF91CF911F910F9108952F924A
:101CA0003F924F925F926F927F928F929F92AF92EC
:101CB000BF92CF92DF92EF92FF920F931F93CF9339
:101CC000DF93CDB7DEB7CA1BDB0B0FB6F894DEBFD0
:101CD0000FBECDBF09942A88398848885F846E84F6
:101CE0007D848C849B84AA84B984C884DF80EE8040
:101CF000FD800C811B81AA81B981CE0FD11D0FB649
:101D0000F894DEBF0FBECDBFED010895F894FFCF6C
:101D100067009E00A700D200C500A900B800B5006A
:101D20000000020220004F70636F64653A200020BB
:101D3000697320726573657276656420666F7220C0
:101D400066757475726520757365642E00205D007C
:101D50004469766973696F6E206279207A65726F63
:021D60000A0077
:00000001FF
